{
  "contractName": "Flip",
  "abi": [
    {
      "inputs": [],
      "payable": false,
      "stateMutability": "nonpayable",
      "type": "constructor"
    },
    {
      "anonymous": false,
      "inputs": [
        {
          "indexed": false,
          "internalType": "string",
          "name": "message",
          "type": "string"
        },
        {
          "indexed": false,
          "internalType": "bool",
          "name": "result",
          "type": "bool"
        }
      ],
      "name": "onBetPlaced",
      "type": "event"
    },
    {
      "anonymous": false,
      "inputs": [
        {
          "indexed": false,
          "internalType": "bool",
          "name": "result",
          "type": "bool"
        },
        {
          "indexed": false,
          "internalType": "string",
          "name": "message",
          "type": "string"
        }
      ],
      "name": "onBetResult",
      "type": "event"
    },
    {
      "anonymous": false,
      "inputs": [
        {
          "indexed": false,
          "internalType": "bytes32",
          "name": "queryId",
          "type": "bytes32"
        }
      ],
      "name": "onRandomFailed",
      "type": "event"
    },
    {
      "constant": true,
      "inputs": [],
      "name": "balance",
      "outputs": [
        {
          "internalType": "uint256",
          "name": "",
          "type": "uint256"
        }
      ],
      "payable": false,
      "stateMutability": "view",
      "type": "function"
    },
    {
      "constant": true,
      "inputs": [],
      "name": "owner",
      "outputs": [
        {
          "internalType": "address",
          "name": "",
          "type": "address"
        }
      ],
      "payable": false,
      "stateMutability": "view",
      "type": "function"
    },
    {
      "constant": true,
      "inputs": [
        {
          "internalType": "address",
          "name": "",
          "type": "address"
        }
      ],
      "name": "players",
      "outputs": [
        {
          "internalType": "uint256",
          "name": "balance",
          "type": "uint256"
        },
        {
          "internalType": "bytes32",
          "name": "queryId",
          "type": "bytes32"
        }
      ],
      "payable": false,
      "stateMutability": "view",
      "type": "function"
    },
    {
      "constant": true,
      "inputs": [
        {
          "internalType": "bytes32",
          "name": "",
          "type": "bytes32"
        }
      ],
      "name": "requests",
      "outputs": [
        {
          "internalType": "address payable",
          "name": "userAddress",
          "type": "address"
        },
        {
          "internalType": "uint256",
          "name": "headsOrTails",
          "type": "uint256"
        },
        {
          "internalType": "bytes32",
          "name": "queryId",
          "type": "bytes32"
        }
      ],
      "payable": false,
      "stateMutability": "view",
      "type": "function"
    },
    {
      "constant": false,
      "inputs": [
        {
          "internalType": "uint256",
          "name": "betOption",
          "type": "uint256"
        }
      ],
      "name": "bet",
      "outputs": [],
      "payable": true,
      "stateMutability": "payable",
      "type": "function"
    },
    {
      "constant": false,
      "inputs": [
        {
          "internalType": "bytes32",
          "name": "_myid",
          "type": "bytes32"
        },
        {
          "internalType": "string",
          "name": "_result",
          "type": "string"
        }
      ],
      "name": "__callback",
      "outputs": [],
      "payable": false,
      "stateMutability": "nonpayable",
      "type": "function"
    },
    {
      "constant": false,
      "inputs": [
        {
          "internalType": "bytes32",
          "name": "_queryId",
          "type": "bytes32"
        },
        {
          "internalType": "string",
          "name": "_result",
          "type": "string"
        },
        {
          "internalType": "bytes",
          "name": "_proof",
          "type": "bytes"
        }
      ],
      "name": "__callback",
      "outputs": [],
      "payable": false,
      "stateMutability": "nonpayable",
      "type": "function"
    },
    {
      "constant": false,
      "inputs": [
        {
          "internalType": "uint256",
          "name": "betOption",
          "type": "uint256"
        }
      ],
      "name": "randomGenerator",
      "outputs": [],
      "payable": true,
      "stateMutability": "payable",
      "type": "function"
    },
    {
      "constant": false,
      "inputs": [],
      "name": "setBalance",
      "outputs": [],
      "payable": true,
      "stateMutability": "payable",
      "type": "function"
    }
  ],
  "bytecode": "0x60806040523480156200001157600080fd5b50336000806101000a81548173ffffffffffffffffffffffffffffffffffffffff021916908373ffffffffffffffffffffffffffffffffffffffff16021790555062000067603060f81b6200006d60201b60201c565b62000a91565b600073ffffffffffffffffffffffffffffffffffffffff16600260009054906101000a900473ffffffffffffffffffffffffffffffffffffffff1673ffffffffffffffffffffffffffffffffffffffff161480620000fd57506000620000fb600260009054906101000a900473ffffffffffffffffffffffffffffffffffffffff16620003d360201b60201c565b145b156200011757620001156000620003de60201b60201c565b505b600260009054906101000a900473ffffffffffffffffffffffffffffffffffffffff1673ffffffffffffffffffffffffffffffffffffffff166338cc48316040518163ffffffff1660e01b8152600401602060405180830381600087803b1580156200018257600080fd5b505af115801562000197573d6000803e3d6000fd5b505050506040513d6020811015620001ae57600080fd5b810190808051906020019092919050505073ffffffffffffffffffffffffffffffffffffffff16600160009054906101000a900473ffffffffffffffffffffffffffffffffffffffff1673ffffffffffffffffffffffffffffffffffffffff1614620002fd57600260009054906101000a900473ffffffffffffffffffffffffffffffffffffffff1673ffffffffffffffffffffffffffffffffffffffff166338cc48316040518163ffffffff1660e01b8152600401602060405180830381600087803b1580156200027f57600080fd5b505af115801562000294573d6000803e3d6000fd5b505050506040513d6020811015620002ab57600080fd5b8101908080519060200190929190505050600160006101000a81548173ffffffffffffffffffffffffffffffffffffffff021916908373ffffffffffffffffffffffffffffffffffffffff1602179055505b600160009054906101000a900473ffffffffffffffffffffffffffffffffffffffff1673ffffffffffffffffffffffffffffffffffffffff1663688dcfd7826040518263ffffffff1660e01b815260040180827effffffffffffffffffffffffffffffffffffffffffffffffffffffffffffff19167effffffffffffffffffffffffffffffffffffffffffffffffffffffffffffff19168152602001915050600060405180830381600087803b158015620003b757600080fd5b505af1158015620003cc573d6000803e3d6000fd5b5050505050565b6000813b9050919050565b6000620003f0620003f760201b60201c565b9050919050565b6000806200041f731d3b2638a7cc9f2cb3d298a3da7a90b67e5506ed620003d360201b60201c565b1115620004cb57731d3b2638a7cc9f2cb3d298a3da7a90b67e5506ed600260006101000a81548173ffffffffffffffffffffffffffffffffffffffff021916908373ffffffffffffffffffffffffffffffffffffffff160217905550620004c16040518060400160405280600b81526020017f6574685f6d61696e6e6574000000000000000000000000000000000000000000815250620009c660201b60201c565b60019050620009c3565b6000620004f273c03a2615d5efaf5f49f60b7bb6583eaec212fdf1620003d360201b60201c565b11156200059e5773c03a2615d5efaf5f49f60b7bb6583eaec212fdf1600260006101000a81548173ffffffffffffffffffffffffffffffffffffffff021916908373ffffffffffffffffffffffffffffffffffffffff160217905550620005946040518060400160405280600c81526020017f6574685f726f707374656e330000000000000000000000000000000000000000815250620009c660201b60201c565b60019050620009c3565b6000620005c573b7a07bcf2ba2f2703b24c0691b5278999c59ac7e620003d360201b60201c565b1115620006715773b7a07bcf2ba2f2703b24c0691b5278999c59ac7e600260006101000a81548173ffffffffffffffffffffffffffffffffffffffff021916908373ffffffffffffffffffffffffffffffffffffffff160217905550620006676040518060400160405280600981526020017f6574685f6b6f76616e0000000000000000000000000000000000000000000000815250620009c660201b60201c565b60019050620009c3565b60006200069873146500cfd35b22e4a392fe0adc06de1a1368ed48620003d360201b60201c565b1115620007445773146500cfd35b22e4a392fe0adc06de1a1368ed48600260006101000a81548173ffffffffffffffffffffffffffffffffffffffff021916908373ffffffffffffffffffffffffffffffffffffffff1602179055506200073a6040518060400160405280600b81526020017f6574685f72696e6b656279000000000000000000000000000000000000000000815250620009c660201b60201c565b60019050620009c3565b60006200076b73a2998efd205fb9d4b4963afb70778d6354ad3a41620003d360201b60201c565b1115620008175773a2998efd205fb9d4b4963afb70778d6354ad3a41600260006101000a81548173ffffffffffffffffffffffffffffffffffffffff021916908373ffffffffffffffffffffffffffffffffffffffff1602179055506200080d6040518060400160405280600a81526020017f6574685f676f65726c6900000000000000000000000000000000000000000000815250620009c660201b60201c565b60019050620009c3565b60006200083e736f485c8bf6fc43ea212e93bbf8ce046c7f1cb475620003d360201b60201c565b1115620008a457736f485c8bf6fc43ea212e93bbf8ce046c7f1cb475600260006101000a81548173ffffffffffffffffffffffffffffffffffffffff021916908373ffffffffffffffffffffffffffffffffffffffff16021790555060019050620009c3565b6000620008cb7320e12a1f859b3feae5fb2a0a32c18f5a65555bbf620003d360201b60201c565b111562000931577320e12a1f859b3feae5fb2a0a32c18f5a65555bbf600260006101000a81548173ffffffffffffffffffffffffffffffffffffffff021916908373ffffffffffffffffffffffffffffffffffffffff16021790555060019050620009c3565b6000620009587351efaf4c8b3c9afbd5ab9f4bbc82784ab6ef8faa620003d360201b60201c565b1115620009be577351efaf4c8b3c9afbd5ab9f4bbc82784ab6ef8faa600260006101000a81548173ffffffffffffffffffffffffffffffffffffffff021916908373ffffffffffffffffffffffffffffffffffffffff16021790555060019050620009c3565b600090505b90565b8060039080519060200190620009de929190620009e2565b5050565b828054600181600116156101000203166002900490600052602060002090601f016020900481019282601f1062000a2557805160ff191683800117855562000a56565b8280016001018555821562000a56579182015b8281111562000a5557825182559160200191906001019062000a38565b5b50905062000a65919062000a69565b5090565b62000a8e91905b8082111562000a8a57600081600090555060010162000a70565b5090565b90565b613e778062000aa16000396000f3fe6080604052600436106100865760003560e01c80638da5cb5b116100595780638da5cb5b146102fe5780639d86698514610355578063acdda499146103de578063b69ef8a81461040c578063e2eb41ff1461043757610086565b80631a61746e1461008b57806327dc297e1461009557806338bbfa50146101675780637365870b146102d0575b600080fd5b6100936104a3565b005b3480156100a157600080fd5b50610165600480360360408110156100b857600080fd5b8101908080359060200190929190803590602001906401000000008111156100df57600080fd5b8201836020820111156100f157600080fd5b8035906020019184600183028401116401000000008311171561011357600080fd5b91908080601f016020809104026020016040519081016040528093929190818152602001838380828437600081840152601f19601f820116905080830192505050505050509192919290505050610577565b005b34801561017357600080fd5b506102ce6004803603606081101561018a57600080fd5b8101908080359060200190929190803590602001906401000000008111156101b157600080fd5b8201836020820111156101c357600080fd5b803590602001918460018302840111640100000000831117156101e557600080fd5b91908080601f016020809104026020016040519081016040528093929190818152602001838380828437600081840152601f19601f8201169050808301925050505050505091929192908035906020019064010000000081111561024857600080fd5b82018360208201111561025a57600080fd5b8035906020019184600183028401116401000000008311171561027c57600080fd5b91908080601f016020809104026020016040519081016040528093929190818152602001838380828437600081840152601f19601f8201169050808301925050505050505091929192905050506105ba565b005b6102fc600480360360208110156102e657600080fd5b8101908080359060200190929190505050610817565b005b34801561030a57600080fd5b5061031361094d565b604051808273ffffffffffffffffffffffffffffffffffffffff1673ffffffffffffffffffffffffffffffffffffffff16815260200191505060405180910390f35b34801561036157600080fd5b5061038e6004803603602081101561037857600080fd5b8101908080359060200190929190505050610972565b604051808473ffffffffffffffffffffffffffffffffffffffff1673ffffffffffffffffffffffffffffffffffffffff168152602001838152602001828152602001935050505060405180910390f35b61040a600480360360208110156103f457600080fd5b81019080803590602001909291905050506109bc565b005b34801561041857600080fd5b50610421610b26565b6040518082815260200191505060405180910390f35b34801561044357600080fd5b506104866004803603602081101561045a57600080fd5b81019080803573ffffffffffffffffffffffffffffffffffffffff169060200190929190505050610b2c565b604051808381526020018281526020019250505060405180910390f35b6000809054906101000a900473ffffffffffffffffffffffffffffffffffffffff1673ffffffffffffffffffffffffffffffffffffffff163373ffffffffffffffffffffffffffffffffffffffff1614610565576040517f08c379a000000000000000000000000000000000000000000000000000000000815260040180806020018281038252600c8152602001807f4e6f7420616e206f776e6572000000000000000000000000000000000000000081525060200191505060405180910390fd5b34600660008282540192505081905550565b6105b6828260006040519080825280601f01601f1916602001820160405280156105b05781602001600182028038833980820191505090505b506105ba565b5050565b6105c2610b50565b73ffffffffffffffffffffffffffffffffffffffff163373ffffffffffffffffffffffffffffffffffffffff16146105f957600080fd5b6000610606848484610e70565b60ff161461064a577fa0db1baebc29a36de21a59a8ff24325bda7d81cd969443ae1bc620958b64c006836040518082815260200191505060405180910390a1610812565b60006002836040516020018082805190602001908083835b602083106106855780518252602082019150602081019050602083039250610662565b6001836020036101000a0380198251168184511680821785525050505050509050019150506040516020818303038152906040528051906020012060001c816106ca57fe5b0690508360076000868152602001908152602001600020600201541480156107075750600760008581526020019081526020016000206001015481145b156107905761071584610fa0565b507faa8902fb2a8f88c42ae3d9186ff49c1debb9d6e308f6c7284ebc3e5aedc15ae26001604051808215151515815260200180602001828103825260088152602001807f596f752077696e210000000000000000000000000000000000000000000000008152506020019250505060405180910390a1610810565b61079984611225565b507faa8902fb2a8f88c42ae3d9186ff49c1debb9d6e308f6c7284ebc3e5aedc15ae26000604051808215151515815260200180602001828103825260098152602001807f596f75206c6f73652100000000000000000000000000000000000000000000008152506020019250505060405180910390a15b505b505050565b662386f26fc1000080341015610895576040517f08c379a00000000000000000000000000000000000000000000000000000000081526004018080602001828103825260178152602001807f4d696e696d756d2062657420697320302e30312045746800000000000000000081525060200191505060405180910390fd5b6006543411156108f0576040517f08c379a000000000000000000000000000000000000000000000000000000000815260040180806020018281038252602d815260200180613e16602d913960400191505060405180910390fd5b34600860003373ffffffffffffffffffffffffffffffffffffffff1673ffffffffffffffffffffffffffffffffffffffff16815260200190815260200160002060000160008282540192505081905550610949826109bc565b5050565b6000809054906101000a900473ffffffffffffffffffffffffffffffffffffffff1681565b60076020528060005260406000206000915090508060000160009054906101000a900473ffffffffffffffffffffffffffffffffffffffff16908060010154908060020154905083565b6000809050600062030d40905060006109d783600184611337565b9050336007600083815260200190815260200160002060000160006101000a81548173ffffffffffffffffffffffffffffffffffffffff021916908373ffffffffffffffffffffffffffffffffffffffff16021790555080600760008381526020019081526020016000206002018190555083600760008381526020019081526020016000206001018190555080600860003373ffffffffffffffffffffffffffffffffffffffff1673ffffffffffffffffffffffffffffffffffffffff168152602001908152602001600020600101819055507f0e096cbe26ada641354cef3ac40d2c1bef64b3b51ead0a54e0d4a3535b5dc57a60016040518080602001831515151581526020018281038252601e8152602001807f42657420706c616365642c2077616974696e6720666f7220726573756c7400008152506020019250505060405180910390a150505050565b60065481565b60086020528060005260406000206000915090508060000154908060010154905082565b60008073ffffffffffffffffffffffffffffffffffffffff16600260009054906101000a900473ffffffffffffffffffffffffffffffffffffffff1673ffffffffffffffffffffffffffffffffffffffff161480610bd857506000610bd6600260009054906101000a900473ffffffffffffffffffffffffffffffffffffffff166118d2565b145b15610be957610be760006118dd565b505b600260009054906101000a900473ffffffffffffffffffffffffffffffffffffffff1673ffffffffffffffffffffffffffffffffffffffff166338cc48316040518163ffffffff1660e01b8152600401602060405180830381600087803b158015610c5357600080fd5b505af1158015610c67573d6000803e3d6000fd5b505050506040513d6020811015610c7d57600080fd5b810190808051906020019092919050505073ffffffffffffffffffffffffffffffffffffffff16600160009054906101000a900473ffffffffffffffffffffffffffffffffffffffff1673ffffffffffffffffffffffffffffffffffffffff1614610dc857600260009054906101000a900473ffffffffffffffffffffffffffffffffffffffff1673ffffffffffffffffffffffffffffffffffffffff166338cc48316040518163ffffffff1660e01b8152600401602060405180830381600087803b158015610d4c57600080fd5b505af1158015610d60573d6000803e3d6000fd5b505050506040513d6020811015610d7657600080fd5b8101908080519060200190929190505050600160006101000a81548173ffffffffffffffffffffffffffffffffffffffff021916908373ffffffffffffffffffffffffffffffffffffffff1602179055505b600160009054906101000a900473ffffffffffffffffffffffffffffffffffffffff1673ffffffffffffffffffffffffffffffffffffffff1663c281d19e6040518163ffffffff1660e01b815260040160206040518083038186803b158015610e3057600080fd5b505afa158015610e44573d6000803e3d6000fd5b505050506040513d6020811015610e5a57600080fd5b8101908080519060200190929190505050905090565b60007f4c0000000000000000000000000000000000000000000000000000000000000082600081518110610ea057fe5b602001015160f81c60f81b7effffffffffffffffffffffffffffffffffffffffffffffffffffffffffffff1916141580610f3357507f500000000000000000000000000000000000000000000000000000000000000082600181518110610f0357fe5b602001015160f81c60f81b7effffffffffffffffffffffffffffffffffffffffffffffffffffffffffffff191614155b80610f5f5750600160ff1682600281518110610f4b57fe5b602001015160f81c60f81b60f81c60ff1614155b15610f6d5760019050610f99565b6000610f82838686610f7d6118ee565b611990565b905080610f93576002915050610f99565b60009150505b9392505050565b6000806002600860006007600087815260200190815260200160002060000160009054906101000a900473ffffffffffffffffffffffffffffffffffffffff1673ffffffffffffffffffffffffffffffffffffffff1673ffffffffffffffffffffffffffffffffffffffff16815260200190815260200160002060000154029050600860006007600086815260200190815260200160002060000160009054906101000a900473ffffffffffffffffffffffffffffffffffffffff1673ffffffffffffffffffffffffffffffffffffffff1673ffffffffffffffffffffffffffffffffffffffff168152602001908152602001600020600001546006600082825403925050819055506000600860006007600087815260200190815260200160002060000160009054906101000a900473ffffffffffffffffffffffffffffffffffffffff1673ffffffffffffffffffffffffffffffffffffffff1673ffffffffffffffffffffffffffffffffffffffff168152602001908152602001600020600001819055506007600084815260200190815260200160002060000160009054906101000a900473ffffffffffffffffffffffffffffffffffffffff1673ffffffffffffffffffffffffffffffffffffffff166108fc829081150290604051600060405180830381858888f193505050501580156111a3573d6000803e3d6000fd5b50600860006007600086815260200190815260200160002060000160009054906101000a900473ffffffffffffffffffffffffffffffffffffffff1673ffffffffffffffffffffffffffffffffffffffff1673ffffffffffffffffffffffffffffffffffffffff16815260200190815260200160002060000154915050919050565b6000600860006007600085815260200190815260200160002060000160009054906101000a900473ffffffffffffffffffffffffffffffffffffffff1673ffffffffffffffffffffffffffffffffffffffff1673ffffffffffffffffffffffffffffffffffffffff168152602001908152602001600020600001546006600082825401925050819055506000600860006007600086815260200190815260200160002060000160009054906101000a900473ffffffffffffffffffffffffffffffffffffffff1673ffffffffffffffffffffffffffffffffffffffff1673ffffffffffffffffffffffffffffffffffffffff168152602001908152602001600020600001819055506006549050919050565b60008083118015611349575060208311155b61135257600080fd5b600a84029350606060016040519080825280601f01601f19166020018201604052801561138e5781602001600182028038833980820191505090505b5090508360f81b816000815181106113a257fe5b60200101907effffffffffffffffffffffffffffffffffffffffffffffffffffffffffffff1916908160001a905350606060206040519080825280601f01601f1916602001820160405280156114075781602001600182028038833980820191505090505b509050606060206040519080825280601f01601f1916602001820160405280156114405781602001600182028038833980820191505090505b509050600061144d61203b565b905060208352424118600143034018602084015260208252806020830152606060206040519080825280601f01601f1916602001820160405280156114a15781602001600182028038833980820191505090505b509050886020820152606060086040519080825280601f01601f1916602001820160405280156114e05781602001600182028038833980820191505090505b5090506114f3826018600884600061235b565b506114fc613cef565b604051806080016040528087815260200188815260200186815260200184815250905060006115616040518060400160405280600681526020017f72616e646f6d0000000000000000000000000000000000000000000000000000815250838c6123ba565b9050606060086040519080825280601f01601f1916602001820160405280156115995781602001600182028038833980820191505090505b50905060208401517f0100000000000000000000000000000000000000000000000000000000000000810460278301537e01000000000000000000000000000000000000000000000000000000000000810460268301537d010000000000000000000000000000000000000000000000000000000000810460258301537c0100000000000000000000000000000000000000000000000000000000810460248301537b01000000000000000000000000000000000000000000000000000000810460238301537a0100000000000000000000000000000000000000000000000000008104602283015379010000000000000000000000000000000000000000000000000081046021830153780100000000000000000000000000000000000000000000000081046020830153506118bf8282856001600481106116d857fe5b60200201516002876000600481106116ec57fe5b60200201516040518082805190602001908083835b602083106117245780518252602082019150602081019050602083039250611701565b6001836020036101000a038019825116818451168082178552505050505050905001915050602060405180830381855afa158015611766573d6000803e3d6000fd5b5050506040513d602081101561177b57600080fd5b81019080805190602001909291905050508760026004811061179957fe5b60200201516040516020018085805190602001908083835b602083106117d457805182526020820191506020810190506020830392506117b1565b6001836020036101000a03801982511681845116808217855250505050505090500184805190602001908083835b602083106118255780518252602082019150602081019050602083039250611802565b6001836020036101000a03801982511681845116808217855250505050505090500183815260200182805190602001908083835b6020831061187c5780518252602082019150602081019050602083039250611859565b6001836020036101000a03801982511681845116808217855250505050505090500194505050505060405160208183030381529060405280519060200120612729565b8199505050505050505050509392505050565b6000813b9050919050565b60006118e7612745565b9050919050565b606060038054600181600116156101000203166002900480601f0160208091040260200160405190810160405280929190818152602001828054600181600116156101000203166002900480156119865780601f1061195b57610100808354040283529160200191611986565b820191906000526020600020905b81548152906001019060200180831161196957829003601f168201915b5050505050905090565b60008060206002876045815181106119a457fe5b602001015160f81c60f81b60f81c60ff1601604401019050606060206040519080825280601f01601f1916602001820160405280156119f25781602001600182028038833980820191505090505b509050611a048783602084600061235b565b50600284876040516020018083805190602001908083835b60208310611a3f5780518252602082019150602081019050602083039250611a1c565b6001836020036101000a038019825116818451168082178552505050505050905001828152602001925050506040516020818303038152906040526040518082805190602001908083835b60208310611aad5780518252602082019150602081019050602083039250611a8a565b6001836020036101000a038019825116818451168082178552505050505050905001915050602060405180830381855afa158015611aef573d6000803e3d6000fd5b5050506040513d6020811015611b0457600080fd5b81019080805190602001909291905050506040516020018082815260200191505060405160208183030381529060405280519060200120818051906020012014611b5357600092505050612033565b60606002886001604986010181518110611b6957fe5b602001015160f81c60f81b60f81c60ff16016040519080825280601f01601f191660200182016040528015611bad5781602001600182028038833980820191505090505b509050611bc28860498501835184600061235b565b50611c8d6002826040518082805190602001908083835b60208310611bfc5780518252602082019150602081019050602083039250611bd9565b6001836020036101000a038019825116818451168082178552505050505050905001915050602060405180830381855afa158015611c3e573d6000803e3d6000fd5b5050506040513d6020811015611c5357600080fd5b8101908080519060200190929190505050878a6008602088010181518110611c7757fe5b602001015160f81c60f81b60f81c60ff16612c9c565b611c9d5760009350505050612033565b606060296040519080825280601f01601f191660200182016040528015611cd35781602001600182028038833980820191505090505b509050611ce88960208601602984600061235b565b506060604080519080825280601f01601f191660200182016040528015611d1e5781602001600182028038833980820191505090505b5090506000604184516029602089010101019050611d448b60408303604085600061235b565b5060006002836040518082805190602001908083835b60208310611d7d5780518252602082019150602081019050602083039250611d5a565b6001836020036101000a038019825116818451168082178552505050505050905001915050602060405180830381855afa158015611dbf573d6000803e3d6000fd5b5050506040513d6020811015611dd457600080fd5b8101908080519060200190929190505050905083816040516020018083805190602001908083835b60208310611e1f5780518252602082019150602081019050602083039250611dfc565b6001836020036101000a0380198251168184511680821785525050505050509050018281526020019250505060405160208183030381529060405280519060200120600460008d8152602001908152602001600020541415611e9757600460008c815260200190815260200160002060009055611ea7565b6000975050505050505050612033565b606060496040519080825280601f01601f191660200182016040528015611edd5781602001600182028038833980820191505090505b509050611eef8d89604984600061235b565b50611f986002826040518082805190602001908083835b60208310611f295780518252602082019150602081019050602083039250611f06565b6001836020036101000a038019825116818451168082178552505050505050905001915050602060405180830381855afa158015611f6b573d6000803e3d6000fd5b5050506040513d6020811015611f8057600080fd5b81019080805190602001909291905050508786612d4c565b611fad57600098505050505050505050612033565b6005600083815260200190815260200160002060009054906101000a900460ff1661200757611fdc8d84612f0a565b6005600084815260200190815260200160002060006101000a81548160ff0219169083151502179055505b6005600083815260200190815260200160002060009054906101000a900460ff16985050505050505050505b949350505050565b60008073ffffffffffffffffffffffffffffffffffffffff16600260009054906101000a900473ffffffffffffffffffffffffffffffffffffffff1673ffffffffffffffffffffffffffffffffffffffff1614806120c3575060006120c1600260009054906101000a900473ffffffffffffffffffffffffffffffffffffffff166118d2565b145b156120d4576120d260006118dd565b505b600260009054906101000a900473ffffffffffffffffffffffffffffffffffffffff1673ffffffffffffffffffffffffffffffffffffffff166338cc48316040518163ffffffff1660e01b8152600401602060405180830381600087803b15801561213e57600080fd5b505af1158015612152573d6000803e3d6000fd5b505050506040513d602081101561216857600080fd5b810190808051906020019092919050505073ffffffffffffffffffffffffffffffffffffffff16600160009054906101000a900473ffffffffffffffffffffffffffffffffffffffff1673ffffffffffffffffffffffffffffffffffffffff16146122b357600260009054906101000a900473ffffffffffffffffffffffffffffffffffffffff1673ffffffffffffffffffffffffffffffffffffffff166338cc48316040518163ffffffff1660e01b8152600401602060405180830381600087803b15801561223757600080fd5b505af115801561224b573d6000803e3d6000fd5b505050506040513d602081101561226157600080fd5b8101908080519060200190929190505050600160006101000a81548173ffffffffffffffffffffffffffffffffffffffff021916908373ffffffffffffffffffffffffffffffffffffffff1602179055505b600160009054906101000a900473ffffffffffffffffffffffffffffffffffffffff1673ffffffffffffffffffffffffffffffffffffffff1663abaa5f3e6040518163ffffffff1660e01b815260040160206040518083038186803b15801561231b57600080fd5b505afa15801561232f573d6000803e3d6000fd5b505050506040513d602081101561234557600080fd5b8101908080519060200190929190505050905090565b606060008285019050808451101561237257600080fd5b600086602001905060008460200190505b8688602001018210156123ab5781890151808288015250602082019150602081019050612383565b85935050505095945050505050565b60008073ffffffffffffffffffffffffffffffffffffffff16600260009054906101000a900473ffffffffffffffffffffffffffffffffffffffff1673ffffffffffffffffffffffffffffffffffffffff16148061244257506000612440600260009054906101000a900473ffffffffffffffffffffffffffffffffffffffff166118d2565b145b156124535761245160006118dd565b505b600260009054906101000a900473ffffffffffffffffffffffffffffffffffffffff1673ffffffffffffffffffffffffffffffffffffffff166338cc48316040518163ffffffff1660e01b8152600401602060405180830381600087803b1580156124bd57600080fd5b505af11580156124d1573d6000803e3d6000fd5b505050506040513d60208110156124e757600080fd5b810190808051906020019092919050505073ffffffffffffffffffffffffffffffffffffffff16600160009054906101000a900473ffffffffffffffffffffffffffffffffffffffff1673ffffffffffffffffffffffffffffffffffffffff161461263257600260009054906101000a900473ffffffffffffffffffffffffffffffffffffffff1673ffffffffffffffffffffffffffffffffffffffff166338cc48316040518163ffffffff1660e01b8152600401602060405180830381600087803b1580156125b657600080fd5b505af11580156125ca573d6000803e3d6000fd5b505050506040513d60208110156125e057600080fd5b8101908080519060200190929190505050600160006101000a81548173ffffffffffffffffffffffffffffffffffffffff021916908373ffffffffffffffffffffffffffffffffffffffff1602179055505b6060600460405190808252806020026020018201604052801561266957816020015b60608152602001906001900390816126545790505b5090508360006004811061267957fe5b60200201518160008151811061268b57fe5b6020026020010181905250836001600481106126a357fe5b6020020151816001815181106126b557fe5b6020026020010181905250836002600481106126cd57fe5b6020020151816002815181106126df57fe5b6020026020010181905250836003600481106126f757fe5b60200201518160038151811061270957fe5b602002602001018190525061271f858285613322565b9150509392505050565b8060046000848152602001908152602001600020819055505050565b600080612765731d3b2638a7cc9f2cb3d298a3da7a90b67e5506ed6118d2565b111561280757731d3b2638a7cc9f2cb3d298a3da7a90b67e5506ed600260006101000a81548173ffffffffffffffffffffffffffffffffffffffff021916908373ffffffffffffffffffffffffffffffffffffffff1602179055506127fe6040518060400160405280600b81526020017f6574685f6d61696e6e6574000000000000000000000000000000000000000000815250613888565b60019050612c99565b600061282673c03a2615d5efaf5f49f60b7bb6583eaec212fdf16118d2565b11156128c85773c03a2615d5efaf5f49f60b7bb6583eaec212fdf1600260006101000a81548173ffffffffffffffffffffffffffffffffffffffff021916908373ffffffffffffffffffffffffffffffffffffffff1602179055506128bf6040518060400160405280600c81526020017f6574685f726f707374656e330000000000000000000000000000000000000000815250613888565b60019050612c99565b60006128e773b7a07bcf2ba2f2703b24c0691b5278999c59ac7e6118d2565b11156129895773b7a07bcf2ba2f2703b24c0691b5278999c59ac7e600260006101000a81548173ffffffffffffffffffffffffffffffffffffffff021916908373ffffffffffffffffffffffffffffffffffffffff1602179055506129806040518060400160405280600981526020017f6574685f6b6f76616e0000000000000000000000000000000000000000000000815250613888565b60019050612c99565b60006129a873146500cfd35b22e4a392fe0adc06de1a1368ed486118d2565b1115612a4a5773146500cfd35b22e4a392fe0adc06de1a1368ed48600260006101000a81548173ffffffffffffffffffffffffffffffffffffffff021916908373ffffffffffffffffffffffffffffffffffffffff160217905550612a416040518060400160405280600b81526020017f6574685f72696e6b656279000000000000000000000000000000000000000000815250613888565b60019050612c99565b6000612a6973a2998efd205fb9d4b4963afb70778d6354ad3a416118d2565b1115612b0b5773a2998efd205fb9d4b4963afb70778d6354ad3a41600260006101000a81548173ffffffffffffffffffffffffffffffffffffffff021916908373ffffffffffffffffffffffffffffffffffffffff160217905550612b026040518060400160405280600a81526020017f6574685f676f65726c6900000000000000000000000000000000000000000000815250613888565b60019050612c99565b6000612b2a736f485c8bf6fc43ea212e93bbf8ce046c7f1cb4756118d2565b1115612b8e57736f485c8bf6fc43ea212e93bbf8ce046c7f1cb475600260006101000a81548173ffffffffffffffffffffffffffffffffffffffff021916908373ffffffffffffffffffffffffffffffffffffffff16021790555060019050612c99565b6000612bad7320e12a1f859b3feae5fb2a0a32c18f5a65555bbf6118d2565b1115612c11577320e12a1f859b3feae5fb2a0a32c18f5a65555bbf600260006101000a81548173ffffffffffffffffffffffffffffffffffffffff021916908373ffffffffffffffffffffffffffffffffffffffff16021790555060019050612c99565b6000612c307351efaf4c8b3c9afbd5ab9f4bbc82784ab6ef8faa6118d2565b1115612c94577351efaf4c8b3c9afbd5ab9f4bbc82784ab6ef8faa600260006101000a81548173ffffffffffffffffffffffffffffffffffffffff021916908373ffffffffffffffffffffffffffffffffffffffff16021790555060019050612c99565b600090505b90565b6000806001905082845114612cb057600080fd5b60008090505b83811015612d4057848181518110612cca57fe5b602001015160f81c60f81b7effffffffffffffffffffffffffffffffffffffffffffffffffffffffffffff1916868260208110612d0357fe5b1a60f81b7effffffffffffffffffffffffffffffffffffffffffffffffffffffffffffff191614612d3357600091505b8080600101915050612cb6565b50809150509392505050565b6000806000806000606060206040519080825280601f01601f191660200182016040528015612d8a5781602001600182028038833980820191505090505b5090506000602089600381518110612d9e57fe5b602001015160f81c60f81b60f81c60ff16036004019050612dc48982602085600061235b565b9150606060206040519080825280601f01601f191660200182016040528015612dfc5781602001600182028038833980820191505090505b509050602282019150612e388a60208c6001860381518110612e1a57fe5b602001015160f81c60f81b60f81c60ff16038401602084600061235b565b90506020830151945060208101519350612e558b601b87876138a2565b80975081985050508573ffffffffffffffffffffffffffffffffffffffff16898051906020012060001c73ffffffffffffffffffffffffffffffffffffffff161415612eab576001975050505050505050612f03565b612eb88b601c87876138a2565b80975081985050508573ffffffffffffffffffffffffffffffffffffffff16898051906020012060001c73ffffffffffffffffffffffffffffffffffffffff16149750505050505050505b9392505050565b60008060606002856001860181518110612f2057fe5b602001015160f81c60f81b60f81c60ff16016040519080825280601f01601f191660200182016040528015612f645781602001600182028038833980820191505090505b509050612f768585835184600061235b565b506060604080519080825280601f01601f191660200182016040528015612fac5781602001600182028038833980820191505090505b509050612fbf866004604084600061235b565b50606060626040519080825280601f01601f191660200182016040528015612ff65781602001600182028038833980820191505090505b509050600160f81b8160008151811061300b57fe5b60200101907effffffffffffffffffffffffffffffffffffffffffffffffffffffffffffff1916908160001a90535061304c8760418803604184600161235b565b5060606040518060400160405280602081526020017ffd94fa71bc0ba10d39d464d0d8f465efeef0a2764e3887fcc9df41ded20f505c8152509050613097816000602085604261235b565b506131406002836040518082805190602001908083835b602083106130d157805182526020820191506020810190506020830392506130ae565b6001836020036101000a038019825116818451168082178552505050505050905001915050602060405180830381855afa158015613113573d6000803e3d6000fd5b5050506040513d602081101561312857600080fd5b81019080805190602001909291905050508585612d4c565b9450846131555760009550505050505061331c565b6060604051806060016040528060408152602001613dd6604091399050606060426040519080825280601f01601f1916602001820160405280156131a85781602001600182028038833980820191505090505b50905060fe60f81b816000815181106131bd57fe5b60200101907effffffffffffffffffffffffffffffffffffffffffffffffffffffffffffff1916908160001a9053506131fc8a6003604184600161235b565b50606060028b60458151811061320e57fe5b602001015160f81c60f81b60f81c60ff16016040519080825280601f01601f1916602001820160405280156132525781602001600182028038833980820191505090505b5090506132658b6044835184600061235b565b5061330e6002836040518082805190602001908083835b6020831061329f578051825260208201915060208101905060208303925061327c565b6001836020036101000a038019825116818451168082178552505050505050905001915050602060405180830381855afa1580156132e1573d6000803e3d6000fd5b5050506040513d60208110156132f657600080fd5b81019080805190602001909291905050508285612d4c565b975087985050505050505050505b92915050565b60008073ffffffffffffffffffffffffffffffffffffffff16600260009054906101000a900473ffffffffffffffffffffffffffffffffffffffff1673ffffffffffffffffffffffffffffffffffffffff1614806133aa575060006133a8600260009054906101000a900473ffffffffffffffffffffffffffffffffffffffff166118d2565b145b156133bb576133b960006118dd565b505b600260009054906101000a900473ffffffffffffffffffffffffffffffffffffffff1673ffffffffffffffffffffffffffffffffffffffff166338cc48316040518163ffffffff1660e01b8152600401602060405180830381600087803b15801561342557600080fd5b505af1158015613439573d6000803e3d6000fd5b505050506040513d602081101561344f57600080fd5b810190808051906020019092919050505073ffffffffffffffffffffffffffffffffffffffff16600160009054906101000a900473ffffffffffffffffffffffffffffffffffffffff1673ffffffffffffffffffffffffffffffffffffffff161461359a57600260009054906101000a900473ffffffffffffffffffffffffffffffffffffffff1673ffffffffffffffffffffffffffffffffffffffff166338cc48316040518163ffffffff1660e01b8152600401602060405180830381600087803b15801561351e57600080fd5b505af1158015613532573d6000803e3d6000fd5b505050506040513d602081101561354857600080fd5b8101908080519060200190929190505050600160006101000a81548173ffffffffffffffffffffffffffffffffffffffff021916908373ffffffffffffffffffffffffffffffffffffffff1602179055505b6000600160009054906101000a900473ffffffffffffffffffffffffffffffffffffffff1673ffffffffffffffffffffffffffffffffffffffff16632ef3accc86856040518363ffffffff1660e01b81526004018080602001838152602001828103825284818151815260200191508051906020019080838360005b83811015613631578082015181840152602081019050613616565b50505050905090810190601f16801561365e5780820380516001836020036101000a031916815260200191505b509350505050602060405180830381600087803b15801561367e57600080fd5b505af1158015613692573d6000803e3d6000fd5b505050506040513d60208110156136a857600080fd5b81019080805190602001909291905050509050823a02670de0b6b3a7640000018111156136db576000801b915050613881565b60606136e6856138e6565b9050600160009054906101000a900473ffffffffffffffffffffffffffffffffffffffff1673ffffffffffffffffffffffffffffffffffffffff1663c55c1cb68360008985896040518663ffffffff1660e01b8152600401808581526020018060200180602001848152602001838103835286818151815260200191508051906020019080838360005b8381101561378b578082015181840152602081019050613770565b50505050905090810190601f1680156137b85780820380516001836020036101000a031916815260200191505b50838103825285818151815260200191508051906020019080838360005b838110156137f15780820151818401526020810190506137d6565b50505050905090810190601f16801561381e5780820380516001836020036101000a031916815260200191505b5096505050505050506020604051808303818588803b15801561384057600080fd5b505af1158015613854573d6000803e3d6000fd5b50505050506040513d602081101561386b57600080fd5b8101908080519060200190929190505050925050505b9392505050565b806003908051906020019061389e929190613d16565b5050565b60008060008060405188815287602082015286604082015285606082015260208160808360006001610bb8f192508051915050818193509350505094509492505050565b60606138f0613966565b6138f8613d96565b61390481610400613972565b61390d816139bc565b60008090505b835181101561394f5761394284828151811061392b57fe5b6020026020010151836139ca90919063ffffffff16565b8080600101915050613913565b50613959816139ef565b8060000151915050919050565b60405180590338823950565b600081905060006020828161398357fe5b061461399c576020818161399357fe5b06602003810190505b808360200181815250506040518084526000815281810160405250505050565b6139c78160046139fd565b50565b6139d78260028351613a1e565b6139ea8183613b5e90919063ffffffff16565b505050565b6139fa8160076139fd565b50565b613a1a601f60058360ff16901b1783613c0990919063ffffffff16565b5050565b60178111613a4a57613a458160058460ff16901b60ff161784613c0990919063ffffffff16565b613b59565b60ff8111613a8b57613a6f601860058460ff16901b1784613c0990919063ffffffff16565b613a8581600185613c499092919063ffffffff16565b50613b58565b61ffff8111613acd57613ab1601960058460ff16901b1784613c0990919063ffffffff16565b613ac781600285613c499092919063ffffffff16565b50613b57565b63ffffffff8111613b1157613af5601a60058460ff16901b1784613c0990919063ffffffff16565b613b0b81600485613c499092919063ffffffff16565b50613b56565b67ffffffffffffffff8111613b5557613b3d601b60058460ff16901b1784613c0990919063ffffffff16565b613b5381600885613c499092919063ffffffff16565b505b5b5b5b5b505050565b613b66613d96565b82602001518360000151518351011115613b9657613b95836002613b8f86602001518651613cb0565b02613ccc565b5b60008060008451905085518051602081830101945086518101825260208701935050505b60208110613bdd5781518352602083019250602082019150602081039050613bba565b60006001826020036101000a039050801983511681855116818117865250508694505050505092915050565b81602001516001836000015151011115613c2f57613c2e826002846020015102613ccc565b5b815180516020818301018381536001820183525050505050565b613c51613d96565b836020015184600001515183011115613c7f57613c7e846002613c78876020015186613cb0565b02613ccc565b5b60006001836101000a0390508451805184818301018684198251161781528582018352505050849150509392505050565b600081831115613cc257829050613cc6565b8190505b92915050565b606082600001519050613cdf8383613972565b613ce98382613b5e565b50505050565b60405180608001604052806004905b6060815260200190600190039081613cfe5790505090565b828054600181600116156101000203166002900490600052602060002090601f016020900481019282601f10613d5757805160ff1916838001178555613d85565b82800160010185558215613d85579182015b82811115613d84578251825591602001919060010190613d69565b5b509050613d929190613db0565b5090565b604051806040016040528060608152602001600081525090565b613dd291905b80821115613dce576000816000905550600101613db6565b5090565b9056fe7fb956469c5c9b89840d55b43537e66a98dd4811ea0a27224272c2e5622911e8537a2f8e86a46baec82864e98dd01e9ccc2f8bc5dfc9cbe5a91a290498dd96e4417661696c61626c652062616c616e6365206973206c657373207468616e207468652062657420616d6f756e74a265627a7a72315820bdcf382ca53f41229d2a457107533abbd21329a8f9a7697c2223991e7926514b64736f6c634300050c0032",
  "source": "pragma solidity 0.5.12;\r\n\r\nimport \"./Ownable.sol\";\r\nimport \"./provableAPI.sol\";\r\n\r\ncontract Flip is Ownable, usingProvable {\r\n\r\n  uint constant MIN_BET = 0.01 ether;\r\n\r\n  uint256 constant NUM_RANDOM_BYTES_REQUESTED = 1;\r\n\r\n  // contract balance (casino balance?)\r\n  uint public balance;\r\n\r\n  // events\r\n  event onBetResult(bool result, string message);\r\n  // event onRandomNumber(uint256 queryId);\r\n  event onRandomFailed(bytes32 queryId);\r\n  // event onFunded(address owner, uint fundingAmount);\r\n  event onBetPlaced(string message, bool result);\r\n\r\n  struct Player {\r\n    uint balance;\r\n    bytes32 queryId;\r\n  }\r\n\r\n  struct Request {\r\n    address payable userAddress;\r\n    uint headsOrTails;\r\n    bytes32 queryId;\r\n  }\r\n\r\n  mapping (bytes32 => Request) public requests;\r\n  mapping (address => Player) public players;\r\n\r\n  // event onDebug(string message);\r\n\r\n  constructor() public {\r\n    provable_setProof(proofType_Ledger);\r\n  }\r\n\r\n  //  -------- OLD PHASE 1 CODE ----------------------------\r\n  // function bet(uint betOption) public payable costs(MIN_BET) returns (bool) {\r\n  //\r\n  //   uint payment = msg.value;\r\n  //   balance += payment;\r\n  //\r\n  //   // get result\r\n  //   bool result = isWinner(betOption, payment);\r\n  //\r\n  //   // fire event on the end\r\n  //   emit onBetResult(result);\r\n  //\r\n  //   return result;\r\n  // }\r\n\r\n  function bet(uint betOption) public payable costs(MIN_BET) {\r\n    require(msg.value <= balance, \"Available balance is less than the bet amount\");\r\n\r\n    players[msg.sender].balance += msg.value;\r\n\r\n    randomGenerator(betOption);\r\n  }\r\n\r\n  function __callback(bytes32 _queryId, string memory _result, bytes memory _proof ) public {\r\n\r\n        require(msg.sender == provable_cbAddress());\r\n\r\n        if (provable_randomDS_proofVerify__returnCode(_queryId, _result, _proof) != 0) {\r\n             emit onRandomFailed(_queryId);\r\n        } else {\r\n\r\n          uint256 randomNumber = uint256(keccak256(abi.encodePacked(_result))) % 2;\r\n\r\n          if(requests[_queryId].queryId == _queryId && randomNumber == requests[_queryId].headsOrTails) {\r\n            playerWins(_queryId);\r\n            emit onBetResult(true, \"You win!\");\r\n          } else {\r\n            casinoWins(_queryId);\r\n            emit onBetResult(false, \"You lose!\");\r\n          }\r\n        }\r\n    }\r\n\r\n    function randomGenerator(uint betOption) payable public {\r\n            uint256 QUERY_EXECUTION_DELAY = 0;\r\n            uint256 GAS_FOR_CALLBACK = 200000;\r\n\r\n            bytes32 _queryId = provable_newRandomDSQuery(\r\n                QUERY_EXECUTION_DELAY,\r\n                NUM_RANDOM_BYTES_REQUESTED,\r\n                GAS_FOR_CALLBACK\r\n            );\r\n\r\n            requests[_queryId].userAddress = msg.sender;\r\n            requests[_queryId].queryId = _queryId;\r\n            requests[_queryId].headsOrTails = betOption;\r\n            players[msg.sender].queryId = _queryId;\r\n\r\n            emit onBetPlaced(\"Bet placed, waiting for result\", true);\r\n    }\r\n\r\n    function playerWins(bytes32 _queryId) private returns(uint) {\r\n       uint playerBalance = players[requests[_queryId].userAddress].balance * 2;\r\n       balance -= players[requests[_queryId].userAddress].balance;\r\n       players[requests[_queryId].userAddress].balance = 0;\r\n\r\n       requests[_queryId].userAddress.transfer(playerBalance);\r\n\r\n       return players[requests[_queryId].userAddress].balance;\r\n   }\r\n\r\n   function casinoWins(bytes32 _queryId) private returns(uint) {\r\n       balance += players[requests[_queryId].userAddress].balance;\r\n       players[requests[_queryId].userAddress].balance = 0;\r\n\r\n       return balance;\r\n   }\r\n\r\n   function setBalance() public payable onlyOwner {\r\n           balance += msg.value;\r\n   }\r\n\r\n  // function getBalance() public view returns (uint) {\r\n  //   uint currentBalance = address(this).balance;\r\n  //   return currentBalance;\r\n  // }\r\n\r\n// PSEUDO NUMBER GENERATOR\r\n  function random() private view returns (bool) {\r\n    uint res = now % 2;\r\n    if(res == 0) {\r\n      return false;\r\n    }\r\n    return true;\r\n  }\r\n}\r\n",
  "sourcePath": "/home/spaco/blockchain_development/flip/contract/contracts/Flip.sol",
  "compiler": {
    "name": "solc",
    "version": "0.5.12+commit.7709ece9.Emscripten.clang"
  },
  "schemaVersion": "3.2.5",
  "updatedAt": "2020-10-07T13:00:00.377Z",
  "devdoc": {
    "methods": {
      "__callback(bytes32,string)": {
        "details": "The following `__callback` functions are just placeholders ideally     meant to be defined in child contract when proofs are used.     The function bodies simply silence compiler warnings."
      }
    }
  },
  "userdoc": {
    "methods": {}
  }
}