{
  "contractName": "Ownable",
  "abi": [
    {
      "inputs": [],
      "payable": false,
      "stateMutability": "nonpayable",
      "type": "constructor"
    },
    {
      "constant": true,
      "inputs": [],
      "name": "owner",
      "outputs": [
        {
          "internalType": "address",
          "name": "",
          "type": "address"
        }
      ],
      "payable": false,
      "stateMutability": "view",
      "type": "function"
    }
  ],
  "bytecode": "0x608060405234801561001057600080fd5b50336000806101000a81548173ffffffffffffffffffffffffffffffffffffffff021916908373ffffffffffffffffffffffffffffffffffffffff16021790555060cf8061005f6000396000f3fe6080604052348015600f57600080fd5b506004361060285760003560e01c80638da5cb5b14602d575b600080fd5b60336075565b604051808273ffffffffffffffffffffffffffffffffffffffff1673ffffffffffffffffffffffffffffffffffffffff16815260200191505060405180910390f35b6000809054906101000a900473ffffffffffffffffffffffffffffffffffffffff168156fea265627a7a72315820c12188656033e80fac4aa072fb307e1ba99714fa40b8bd638aada8be650abb2b64736f6c634300050c0032",
  "source": "pragma solidity 0.5.12;\r\n\r\ncontract Ownable {\r\n    address public owner;\r\n\r\n    modifier onlyOwner(){\r\n        require(msg.sender == owner, \"Not an owner\");\r\n        _;\r\n    }\r\n\r\n    modifier costs(uint cost) {\r\n      require(msg.value >= cost, \"Minimum bet is 0.01 Eth\");\r\n      _;\r\n    }\r\n\r\n    constructor() public{\r\n        owner = msg.sender;\r\n    }\r\n}\r\n",
  "sourcePath": "/home/spaco/blockchain_development/flip/contract/contracts/Ownable.sol",
  "compiler": {
    "name": "solc",
    "version": "0.5.12+commit.7709ece9.Emscripten.clang"
  },
  "schemaVersion": "3.2.5",
  "updatedAt": "2020-10-07T12:42:02.905Z",
  "devdoc": {
    "methods": {}
  },
  "userdoc": {
    "methods": {}
  }
}